:100000000C94BA060C94F2060C94F2060C94F206C8
:100010000C94F2060C94F2060C94F2060C94F20680
:100020000C94F2060C94F2060C9466260C943A2773
:100030000C946F200C94F2060C94F2060C94F206C9
:100040000C94F2060C94F2060C94F2060C94F20650
:100050000C94F2060C9412210C94F2060C94F20605
:100060000C94F2060C94F2060C94F2060C94F20630
:100070000C94F2060C94F2060C94F2060C94F20620
:100080000C94F2060C94F2060C94F2060C94F20610
:100090000C94F2060C94F2060C94F2060C94F20600
:1000A0000C94F2060C94F2060C94F20625303258A9
:1000B0003A20253038620A000A722F63203031322C
:1000C00033343536370A001F00340036001200047E
:1000D00000330014000D0020002100130037000839
:1000E0000018000E001B002200230009001C000C59
:1000F000000700050000001E0029002B00E000E1C1
:1001000000E30006512C00240025000A0006001719
:10011000000B0010000000310035002A0028000705
:1001200052E500E60000002600270015000F00162B
:100130000011001A0000002F0030002E0038002DA2
:10014000001D00190000001F0014001A0016000412
:10015000001D001B000600200021001500080007FC
:1001600000090019000500220023001C0017000AE6
:10017000000B00110000001E0029002B00E000E130
:1001800000E30006512C002400250018000C000E8E
:10019000000D0010000000310035002A0028000783
:1001A00052E500E60000002600270012001300338D
:1001B000000F00360000002D002E0030002F00340C
:1001C000003800370000001F003400360012000421
:1001D00000330014000D0020002100130037000838
:1001E00000180006001B002200230009001C000C60
:1001F000000700050000001E0029002B00E000E1C0
:1002000000E30006512C00240025000A000E001710
:10021000000B0010000000300031002A0028000709
:1002200052E500E60000002600270015000F00162A
:100230000011001A0000002F0030002E0038002DA1
:10024000001D00190000003000330014000E002DC6
:100250000034001B000A00380013001C00050006D3
:1002600000070019001A00090010001500180017F7
:10027000000B00110000002F0029002A002800E1D7
:1002800000E30006512C000F000D001600120004C0
:100290000008000C000000310035002B00E00007D2
:1002A00052E500E600000021002000370023002571
:1002B000001D00360000001F001E002E002200243A
:1002C000002600270000001F002200230025002434
:1002D00000260027001B0020002100370014001D0D
:1002E00000040036000C000D000F0015001200087D
:1002F000000B00110000001E0035002B00E000E1A3
:1003000000E30006512C0010000900160018000739
:100310000017001A000000310029002A00280007F9
:1003200052E500E6000000130038001C0005000E36
:10033000000600190000002F0030002E0033002DB1
:100340000034000A00000000000000000012000459
:1003500000000014000D0000000000130000000861
:100360000018000E001B000000000009001C000C1B
:1003700000070005000000000029002B00E000E15C
:1003800000E30006512C00000000000A00060017E0
:10039000000B0010000000000000002A00280007E9
:1003A00052E500E60000000000000015000F0016F6
:1003B0000011001A00000000000000000000000012
:1003C000001D00190000003B004600B600500088E8
:1003D000001D011B0106013C003D00B70052005109
:1003E000004F001901A8003E003F000000A900AA2C
:1003F000000000000000003A00E2003900010001A6
:1004000000010000000000400041004A005200517D
:1004100000500000000000680069004C000100006E
:1004200000010001000000420043004D004B004E5F
:10043000004F0000000000440045000000000000E4
:1004400000000000000000025214000D0000000037
:10045000000000000000000352045215000F0000CD
:100460000000000000000005520000000013000022
:1004700000000000000000015200520700000000D0
:10048000000000000000000000000000000000006C
:10049000000000000000000000000000000000005C
:1004A00052000000000000000000000000000000FA
:1004B000000000000000000000000000000000003C
:1004C0000000000000000044454255473A2064699E
:1004D0007361626C65642E0A0044454255473A20B8
:1004E000656E61626C65642E0A000A002530325820
:1004F000006C65645F7461736B3A20004F6E6573C6
:10050000686F743A206163746976653A2025640ADD
:1005100000290A002575002F002575005D2800259B
:10052000640020002564002000256400200025646C
:10053000007C0025303258006D6F7573656B6579EE
:10054000205B62746E7C782079207620685D28724A
:1005500065702F61636C293A205B00313A0964654C
:100560006C6179282A31306D73293A2025750A3259
:100570003A09696E74657276616C286D73293A2048
:1005800025750A333A096D61785F73706565643A61
:100590002025750A343A0974696D655F746F5F6D63
:1005A00061783A2025750A353A09776865656C5F88
:1005B0006D61785F73706565643A2025750A363A17
:1005C00009776865656C5F74696D655F746F5F6DF1
:1005D00061783A2025750A00703A097072696E7464
:1005E0002076616C7565730A643A097365742064DA
:1005F000656661756C74730A75703A092B310A640B
:100600006E3A092D310A6C743A092B31300A727432
:100610003A092D31300A4553432F713A09717569F2
:10062000740A0A7370656564203D2064656C7461AA
:10063000202A206D61785F7370656564202A202808
:10064000726570656174202F2074696D655F746FC9
:100650005F6D6178290A77686572652064656C74DE
:10066000613A20637572736F723D25642C20776840
:1006700065656C3D25640A53656520687474703A3D
:100680002F2F656E2E77696B6970656469612E6FB7
:1006900072672F77696B692F4D6F7573655F6B6537
:1006A00079730A004D3E20004D25753A25733E2092
:1006B000003F0A003D2025750A003F0A0064656678
:1006C00061756C74730A0025750A003F0A000A09F7
:1006D0002D2056616C756573202D0A00710A000A81
:1006E000092D204D6F7573656B6579202D0A003FCC
:1006F00000433E20004C25640A000A092D20537453
:1007000061747573202D0A686F73745F6B6579620D
:100710006F6172645F6C65647328293A20253032FA
:10072000580A6B6579626F6172645F70726F746F83
:10073000636F6C3A20253032580A6B6579626F61BD
:1007400072645F69646C653A20253032580A7469B6
:100750006D65725F72656164333228293A202530F5
:10076000386C580A000A092D2056657273696F6E3D
:10077000202D0A5649443A203078343834382871CC
:100780002E6D2E6B29205049443A2030783030307D
:10079000312848484B42206D6F6429205645523A13
:1007A000203078303130340A4255494C443A2020C8
:1007B000284A756E2020322032303232290A4F50BA
:1007C00054494F4E533A204C554641204D4F5553B6
:1007D000454B45592045585452414B455920434FAC
:1007E0004E534F4C4520434F4D4D414E44203430E5
:1007F00039360A4743433A20382E332E30204156AB
:10080000522D4C4942433A20322E302E3020415650
:10081000525F415243483A20617672350A000A0914
:100820002D20436F6E736F6C65202D0A4553432F47
:10083000713A09717569740A6D3A096D6F7573655E
:100840006B65790A000A092D204D61676963202DC7
:100850000A443A094465627567204D6573736167A0
:100860006520546F67676C650A583A094D61747268
:100870006978204465627567204D6F646520546F08
:1008800067676C65202D2053686F77206B657970E2
:1008900072657373657320696E206D617472697817
:1008A00020677269640A4B3A094B6579626F61721D
:1008B0006420446562756720546F67676C65202DFE
:1008C0002053686F77206B6579707265737320723F
:1008D00065706F72740A4D3A094465627567204D00
:1008E0006F75736520546F67676C650A563A0956D1
:1008F000657273696F6E0A533A0953746174757344
:100900000A433A09416374697661746520436F6EE6
:10091000736F6C65204D6F64650A46312D4631302A
:100920003A0953776974636820746F204C61796564
:100930007220302D392028463130203D204C30297E
:100940000A302D393A0953776974636820746F202F
:100950004C6179657220302D390A47524156453A2B
:100960000953776974636820746F204C61796572EC
:1009700020302028616C7465726E617465290A42AA
:100980003A094A756D7020746F20426F6F746C6FF6
:10099000616465720A4553433A094A756D70207463
:1009A0006F20426F6F746C6F616465722028616C98
:1009B0007465726E617465290A453A095072696EF0
:1009C0007420454550524F4D2053657474696E67CD
:1009D000730A4253504143453A09436C65617220A2
:1009E000454550524F4D0A006B65796D61705F63EC
:1009F0006F6E6669672E7261773A20253032580A29
:100A00002E737761705F636F6E74726F6C5F63617A
:100A100070736C6F636B3A2025750A2E6361707377
:100A20006C6F636B5F746F5F636F6E74726F6C3A41
:100A30002025750A2E737761705F6C63746C5F6C30
:100A40006775693A2025750A2E737761705F726346
:100A5000746C5F726775693A2025750A2E73776129
:100A6000705F6C616C745F6C6775693A2025750AFC
:100A70002E737761705F72616C745F726775693A2B
:100A80002025750A2E6E6F5F6775693A2025750AF5
:100A90002E737761705F67726176655F6573633A25
:100AA0002025750A2E737761705F6261636B736CCA
:100AB0006173685F6261636B73706163653A20257F
:100AC000750A2E6E6B726F3A2025750A0064656296
:100AD00075675F636F6E6669672E7261773A20256E
:100AE0003032580A2E656E61626C653A2025750AAF
:100AF0002E6D61747269783A2025750A2E6B6579BE
:100B0000626F6172643A2025750A2E6D6F75736588
:100B10003A2025750A006565636F6E6669673A0A53
:100B200064656661756C745F6C617965723A2025E5
:100B3000750A003F000A6D6F7573653A206F66662F
:100B40000A000A6D6F7573653A206F6E0A000A6BB2
:100B50006579626F6172643A206F66660A000A6B9B
:100B60006579626F6172643A206F6E0A000A6D6186
:100B7000747269783A206F66660A000A6D61747251
:100B800069783A206F6E0A000A64656275673A20D8
:100B90006F66660A000A64656275673A206F6E0ABE
:100BA000000A0A4A756D70696E6720746F20626F63
:100BB0006F746C6F616465722E2E2E2000433E2090
:100BC00000436C656172696E6720454550524F4D18
:100BD0000A000A002530325820006B6579626F6187
:100BE00072645F7265706F72743A20005B735D00AF
:100BF0005B575D005B535D005B525D005B445D00D5
:100C00005B435D001203480048004B004200200097
:100C10006D006F00640000000C0371002E006D0079
:100C20002E006B0000000403090409025B000301AD
:100C300000A0FA09040000010301010009211101CB
:100C4000000122400007058103080001090401009A
:100C50000103000000092111010001227B000705AA
:100C600082032000010904020002030000000921A0
:100C7000110100012222000705830320000107055E
:100C8000030320000112010002000000084848018F
:100C9000000401010200010631FF0974A101097578
:100CA000150026FF0095207508810209761500269B
:100CB000FF00952075089102C005010902A1018578
:100CC000020901A10005091901290815002501954E
:100CD00008750181020501093009311581257F95CB
:100CE000027508810609381581257F9501750881EF
:100CF00006050C0A38021581257F950175088106C5
:100D0000C0C005010980A101850319012AB700159A
:100D10000126B700950175108100C0050C0901A1DD
:100D200001850419012AA002150126A0029501756A
:100D3000108100C005010906A101050719E029E796
:100D4000150025019508750181029501750881013D
:100D50000507190029FF150026FF00950675088173
:100D60000005081901290595057501910295017580
:100D7000039101C011241FBECFEFDAE0DEBFCDBF6B
:100D800004B603FE18C08091D1029091D202A091C6
:100D9000D302B091D4028730904BA740B04B59F4A6
:100DA0001092D1021092D2021092D3021092D40269
:100DB000E0E0F8E3099511E0A0E0B1E0E0E7F3E559
:100DC00002C005900D92A63EB107D9F722E0A6EE2B
:100DD000B1E001C01D92A13DB207E1F70E941117D9
:100DE0000C94A0290C940000FF93EF93E091E6018E
:100DF000F091E701309709F00995EF91FF9108957F
:100E0000FC018591803011F0EFDFFBCF0895FF27C3
:100E1000E0E230E247FF0CC0419597FF09C0EDE2E8
:100E20006095709580959095611D711D811D911D36
:100E300027FF02C0219530E350E2AA27660F771FF3
:100E4000881F991FAA1FA41710F0A41B63955A9519
:100E5000A9F7AA3008F0A95FA05DAF93F3956115DB
:100E600071058105910541F7ED3211F4EF93F3958A
:100E7000F21718F43F93F395FBCF8F91B5DFFA95F6
:100E8000E1F70895E991F9918591803021F085325B
:100E900019F0AADFF9CF089520E0E8945591553272
:100EA000C1F3503311F4689455915A3348F45053B8
:100EB00090F3220F022E220F220F200D250FF4CFC8
:100EC0000EF4219589919991533619F3533729F1ED
:100ED000533559F1BC0188279927E8945C3621F4F1
:100EE0008991999168945591543639F446EF7EF082
:100EF00077FF0DC08FEF9FEF0AC055374AE039F0FA
:100F0000583540E121F0523642E009F00895FF9350
:100F1000EF937DDFEF91FF91B7CFFF93EF93FC014C
:100F200081918030B9F360DFFBCFFF93EF9368DFEF
:100F3000F1CFDF93CF93CDB7DEB72596A3DFCF9167
:100F4000DF9108958FEF84B980E485B957985F9A4F
:100F50002E9A2F98A0EFB1E01C9211961C92119737
:100F600012961C92129713961C92139714961C9229
:100F7000149715961C92159716961C92169717960D
:100F80001C921797E8EEF1E0108211821282138210
:100F90001482158216821782B093FB01A093FA0186
:100FA000F093F901E093F8010E941E090895089555
:100FB0000E94D707089508950E94DB0708950F93B4
:100FC0001F93CF93DF938091F8019091F9012091C5
:100FD000FA013091FB013093F9012093F8019093CD
:100FE000FB018093FA01D0E0C0E001E010E060E096
:100FF00030E020E085B1422F807C8C2B862B85B998
:10100000EAE1EA95F1F700C0E091F801F091F90109
:10101000EC0FFD1F808190E0022E02C09595879510
:101020000A94E2F780FD2F9AF5E3FA95F1F70000B4
:1010300076B52E988AE18A95F1F700C0F80102C0D2
:10104000EE0FFF1F4A95E2F7AF018091FA019091F0
:10105000FB01FC01EC0FFD1F4F9B66C040955081CA
:101060004523408346B5471B463058F0E091F801D0
:10107000F091F901EC0FFD1F40818C0F9D1FFC01C9
:101080004083FAE1FA95F1F700C02F982E9A8BE28F
:1010900091E00197F1F700C000002F5F3F4F685FBC
:1010A0002830310509F0A6CFA091FA01B091FB01DB
:1010B000AC0FBD1FE091F801F091F901EC0FFD1F9D
:1010C0009C918081981751F00E94DB206093FC0175
:1010D0007093FD018093FE019093FF012196C8302B
:1010E000D10509F084CF8091C802853021F080912C
:1010F000C802811111C06091FC017091FD018091C5
:10110000FE019091FF010E94F62061317742810536
:10111000910510F00E9496200E94210981E0DF9144
:10112000CF911F910F9108955081452B9ACF209117
:10113000FA013091FB01820F932F911DFC018081F8
:1011400008950F931F93CF93DF9388EB90E00E9455
:101150000007D0E0C0E00CEA10E0E091FA01F09165
:10116000FB01EC0FFD1F80810E94B0091F928F933D
:10117000DF93CF931F930F930E94990721960F90AF
:101180000F900F900F900F900F90C830D10529F756
:10119000DF91CF911F910F9108950895089581E0F7
:1011A000089581E008950E94D108089508950E944D
:1011B000D6080895A5E0B0E0E0EEF8E00C9415291B
:1011C00049835A833091010289819A81311119C072
:1011D000662399F0222389F00E94410F182F682F6F
:1011E00089819A810E941E0F69817A81812F0E94D4
:1011F000CA152596E3E00C9431290E942F0F182F71
:10120000F3CF0E94410F69817A81F1CFFC01262F33
:10121000408151816281738184810E94DA0808953E
:1012200081E00895CF93DF93EC0160E00E9406090E
:10123000BE010E94D708DF91CF9108950E94D80780
:1012400008950E94DC07089508950E946D0D0E9484
:1012500024092FEF84E39CE0215080409040E1F787
:1012600000C0000008950E9425090E9436210895BB
:101270000E9425090E945A2108950F931F93CF932E
:10128000DF938C0161E00E940609EC01B8010E9425
:10129000D308811106C080E0DF91CF911F910F919B
:1012A0000895B801CE010E94E61E8823A1F3B8017B
:1012B000CE010E94091A882371F3B801CE010E9461
:1012C000581E882341F3F80182818823D9F0CB3559
:1012D000FDE5DF07A9F170F4C130ECE5DE07B1F000
:1012E000CF3DFCE5DF0721F1C115DC4559F40E9433
:1012F0003309D1CFCD35EDE5DE07F9F020F1C83A5D
:10130000DD45C1F0C8010E94CF08C6CF90918E0282
:10131000892F8E7F90FF816080938E0280FF05C0B1
:1013200089ED94E00E940007B6CF87EC94E0FACFF5
:101330000E941A140E943809AECF0E945413E2CFC3
:101340000E945E13DFCF0E946213DCCF0E944E200A
:101350000E94DB0908950E94DF090E945120089530
:10136000829590E09C01220F331F220F331F2C7CAB
:1013700095958795959587958373282B30E0C901BE
:10138000880F991F8A7A359527952575822B0895A0
:1013900008950E94C809089581E008950E94CC092B
:1013A00008950895CF93C82F0E94C9098C2F0E94D9
:1013B000CE09CF91089580E00E94D20908950E943D
:1013C000421F0E94D2090895CF930E94421FC82F46
:1013D000809100028C1739F1C093000280918E0237
:1013E00082FF1EC080FF1CC081EF94E00E940007B6
:1013F00080918E0280FF14C01F92CF938CEE94E0F8
:101400009F938F930E94990780918E020F900F9067
:101410000F900F9080FF04C08AEE94E00E940007B6
:101420008C2F0E94D209CF910895ABE0B0E0EBE1A0
:10143000FAE00C9416294F83588769877A878B873F
:1014400061110E948C121E821D8285E0FE0137967A
:10145000DE01119601900D928A95E1F78C819D81B4
:10146000892B61F449815A816B817C818D819E81B8
:101470000E94B5112B96E2E00C94322989819A8161
:1014800089238F3F79F3CE0101960E9410098111C3
:10149000E9CFF0CFFC01808191810E947B0F0895FC
:1014A000CF93C82F8823E1F08CEF8C0F813AD0F4D2
:1014B0008C2F0E94041E811113C06C2F809100019B
:1014C000909101010E94DF1F882329F08C2F0E9438
:1014D0004C120E94AD128C2F0E9444120E94AD1239
:1014E000CF91089580E28C0F883048F4C77081E076
:1014F00001C0880FCA95EAF70E946F12EFCFEBE5A3
:10150000EC0FE33040F4F0E0EB5BFE4F808190E0C5
:101510000E94A11FE5CFE8E5EC0FE73150F4F0E0C1
:10152000EE0FFF1FE95EFE4F808191810E94B71F81
:10153000D7CFCD3EA8F28C2F0E9495170E94681835
:10154000CFCF882379F19CEF980F913A28F40E942D
:101550004C120E94AD12089590E2980F983050F40A
:10156000877091E001C0990F8A95EAF7892F0E9450
:101570007512EFCF9BE5980F933028F490E080E050
:101580000E94A11F089598E5980F973128F490E0E4
:1015900080E00E94B71F08958D3E20F00E94EF1753
:1015A0000E94681808951F93CF93DF93182FEB01C3
:1015B0000E94500A209739F4812F0E94A10ADF91DE
:1015C000CF911F9108958FE99FE00197F1F700C037
:1015D00000002197EFCF70E060E0893311F460E5FF
:1015E00070E00E94D30A0895882321F00E946F12B0
:1015F0000E94AD120895882321F00E9475120E9466
:10160000AD120895B0E0A0E0E8E0FBE00C940F29F3
:101610006C01D62FC72FFC011281F580F2949FE058
:10162000F9220E946512E82E8823B9F0E12E1123D9
:10163000A1F08C2F807F803421F080E28D0F8830E4
:10164000D0F08091BF0282FF16C082E00E9410138A
:101650000E94651291E0E82EE926BC2EB2948FE03C
:10166000B822FBE0FB1508F468C0EB2DF0E0EE5566
:10167000F64D0C940029E12CF0CF0C2F0F70C07F99
:1016800011F00295007F112399F0002359F080E2B8
:101690008D0F883010F0D11107C0802F0E946F127B
:1016A0000E94AD128D2F41C0802F0E947F12F8CF73
:1016B0008D2F0E94A10A002309F43FC080E28D0F04
:1016C000883010F0D11104C0802F0E94751203C021
:1016D000802F0E9485120E94AD122FC00C2F0F7018
:1016E000C07FC03211F00295007FDD2381F0D13040
:1016F00009F463C0112309F46DC0FF2009F463C02D
:10170000F601858180FFCECF8F7085835CC080918C
:10171000BF0282FD33C0112359F0002329F0802F2E
:101720000E946F120E94AD1280E00E94500A05C014
:1017300080E00E94A10A0111C7CFEB2DE850FF0BFA
:10174000349720F40E94421F0E94D209EE2089F0B3
:101750000E94611280FD0DC0F60112820E945B1290
:101760000E94260EC6010E942D0D0E945B120E944F
:10177000480ECDB7DEB7E9E00C942B29112389F090
:10178000F11006C00E948F12802B0E94F40AD5CF60
:1017900021E0F212F7CF0E948F12802B0E94961246
:1017A000CCCFF11006C00E94A312802F0E94FB0A2A
:1017B000C4CF31E0F31609F2F6CF112331F085E002
:1017C0008F1508F4BACF802FE0CF94E09F1508F46E
:1017D000B4CFEBCFFF2049F3D93349F4FFEF27EE25
:1017E00033E0F15020403040E1F700C000008D2F81
:1017F0000E94A10AA2CF8C2F86958695837069F0EE
:10180000813009F09ACF8D2F9C2F9370111102C057
:1018100090E080E00E94B71F90CF8D2F9C2F937097
:10182000111102C090E080E00E94A11F86CF8D2F91
:10183000112329F00E9495170E9468187ECF0E94FC
:10184000EF17FACF8C2F837009F041C0111175CFBB
:101850004D2F429546954770440F440F0D2F0F7042
:1018600010E030E020E0042E04C0000F111F221F02
:10187000331F0A94D2F760E070E0CB01D4FF0FC0B1
:101880006FE070E080E090E004C0660F771F881F73
:10189000991F4A95D2F76095709580959095C69559
:1018A000C695C370602B712B822B932BC23049F0ED
:1018B00058F4C13019F00E94D10D3FCF0E94BE0DE7
:1018C0003CCF0E94E40D39CF0E94BB0D36CF8695E8
:1018D000112311F08C2F8170882309F42ECF4D2F06
:1018E000429546954770440F440F0D2F0F7010E03E
:1018F00030E020E0042E04C0000F111F221F331F10
:101900000A94D2F760E070E0CB01D4FF0FC06FE023
:1019100070E080E090E004C0660F771F881F991F79
:101920004A95D2F76095709580959095C695C69525
:10193000C370602B712B822B932BC23049F058F46B
:10194000C13019F00E94A10EF8CE0E948E0EF5CE85
:101950000E94B40EF2CE0E94FD0DEFCECF70112387
:1019600029F08C2F0E94260E8D2F0FCF8D2F0E94D5
:10197000FB0A8C2F0E94480EE0CED23F51F160F45A
:10198000D03FB9F0D13F81F0112309F449C0F110E3
:1019900089CE8C2F8F7121C0D33F11F1D43FA1F795
:1019A0008091BF0282FD26C08C2F8F71112311F30D
:1019B00014C0112349F084E08F1508F4BECE8C2F9B
:1019C0008F710E946C0EB9CE95E09F1508F4B5CECC
:1019D000F6CF8C2F8F711111CDCF0E94260EADCE78
:1019E000112329F08C2F8F710E94100EA6CE0E9419
:1019F0000A0EA3CE112349F0CF718C2F0E94260E20
:101A000063E08C2F0E94F21298CE81E00E941013A6
:101A1000E1E0EF1508F091CE82E00E9410138DCE28
:101A2000F110DACE8C2F8F71A5CF0F931F93CF9328
:101A3000DF93EC01688179818A810E94860F8C0195
:101A40000E94C70E0E94BA0DB801CE010E94020B7F
:101A5000DF91CF911F910F910895CF93DF93EC0108
:101A60008B819C81892B29F08881998189238F3FE3
:101A700051F4DF91CF910895CE010E94150DCE0152
:101A80000E941209F6CFCE010E943D098111F4CFC8
:101A90000E946512882369F38A81882351F380911B
:101AA000BF0282FFE6CF82E00E941013E2CF90E0F7
:101AB00080E00E94A11F90E080E00E94B71F0E947A
:101AC0008C120E94AD120E94FB190E9468180895A2
:101AD0000E9454120E94570D08950E947C120E9489
:101AE000680D089592959F70963091F058F4925F2A
:101AF0009F70923058F4803F19F030F4883E30F4F3
:101B000081E008959A5FF4CF843FD1F380E0089597
:101B1000883EB0F3813FD1F7F3CFFC018081918102
:101B20000E947B0F0E94720D0895A5E0B0E0EBE9E2
:101B3000FDE00C9416292596E2E00C943229A6E0EB
:101B4000B0E0E5EAFDE00C9416292696E2E00C945C
:101B5000322908950E94A90D08950E94AA0D60934C
:101B60002E0270932F0280933002909331020E94D4
:101B7000570D089508950E94AD0D08950F931F937A
:101B800000912E0210912F022091300230913102EB
:101B9000602B712B822B932B0E94AD0D1F910F9107
:101BA00008950F931F9300912E0210912F02209100
:101BB00030023091310260237123822393230E94EB
:101BC000AD0D1F910F9108950F931F9300912E0259
:101BD00010912F022091300230913102602771273D
:101BE000822793270E94AD0D1F910F9108950E94A7
:101BF000A90D08950E94F70D08950E94FA0D6093B3
:101C00002A0270932B0280932C0290932D020E9443
:101C1000570D089560E070E0CB010E94FD0D08951E
:101C20000F931F9341E050E060E070E08A019B0158
:101C300004C0000F111F221F331F8A95D2F7C9015C
:101C4000B8010E94FD0D1F910F9108950F931F93EE
:101C500041E050E060E070E004C0440F551F661F93
:101C6000771F8A95D2F780912A0290912B02A0913A
:101C70002C02B0912D028A019B01082B192B2A2BD3
:101C80003B2BC901B8010E94FD0D1F910F910895D2
:101C90000F931F9341E050E060E070E004C0440FF8
:101CA000551F661F771F8A95D2F7CB01BA01609541
:101CB00070958095909500912A0210912B022091A9
:101CC0002C0230912D0260237123822393230E94E2
:101CD000FD0D1F910F9108950F931F9341E050E068
:101CE00060E070E004C0440F551F661F771F8A959F
:101CF000D2F780912A0290912B02A0912C02B091F0
:101D00002D028A019B01082719272A273B27C90191
:101D1000B8010E94FD0D1F910F9108950F931F931D
:101D200000912A0210912B0220912C0230912D0259
:101D3000602B712B822B932B0E94FD0D1F910F9115
:101D400008950F931F9300912A0210912B02209166
:101D50002C0230912D0260237123822393230E9451
:101D6000FD0D1F910F9108950F931F9300912A026B
:101D700010912B0220912C0230912D0260277127A7
:101D8000822793270E94FD0D1F910F9108950895BA
:101D9000262F277091E001C0990F2A95EAF723E0DA
:101DA000769567952A95E1F725E0269FF001279F14
:101DB000F00D1124E40FF51F50E040E0682F70E0B3
:101DC0008191DF0111979B01042E02C03695279562
:101DD0000A94E2F7217021952827292328272C939C
:101DE0004F5F5F4F4530510559F70895A82FA770F1
:101DF00023E0969587952A95E1F725E0289FF00145
:101E0000299FF00D1124E60FF71F50E040E080E01D
:101E1000219130E00A2E02C0369527950A94E2F708
:101E200021703327042E01C0220F0A94EAF7822B77
:101E30004F5F5F4F4530510559F70895262F983071
:101E400068F4883058F438E0939FB0011124680F8B
:101E5000711D42E052E0822F0E94C80E0895983012
:101E600070F4883060F448E0949F9001112462E09F
:101E700072E0820F932F911D0E94F60E089580E06C
:101E80000895B0E0A0E0E7E4FFE00C940F298C0196
:101E9000C0902A02D0902B02E0902C02F0902D02EC
:101EA00080912E0290912F02A0913002B0913102C8
:101EB000C82AD92AEA2AFB2ACFE1D0E0BC2ED701D2
:101EC000C6010C2E04C0B695A795979587950A94E0
:101ED000D2F780FD09C0219788F7B12C8B2DCDB7A3
:101EE000DEB7E9E00C942B29B8018C2F0E94E51590
:101EF000019789F3F3CFCF93DF93EC010E94410F59
:101F0000BE010E94E515DF91CF9108951F93CF93F5
:101F1000DF93EB0190910102992339F0CB010E94EC
:101F20007B0FDF91CF911F910895882369F0CB013A
:101F30000E94410F182F682FCE010E941E0FBE0174
:101F4000812F0E94E515EDCFCB010E942F0F182F96
:101F5000F6CF1F93CF93DF93C091320216E08091AA
:101F600033028C1304C0DF91CF911F910895D0E00C
:101F70001C9FF0011D9FF00D1124EC5CFD4F408172
:101F8000518162817381848195810E949F0D219688
:101F9000C770E5CF4091640250916502609166027E
:101FA0007091670280916802909169020E949F0D72
:101FB00008951F93CF93DF9380916902807F09F08A
:101FC00049C080916602882309F444C0809132029E
:101FD000C09133026091640270916502A091670222
:101FE000B0916802D62FD72316E0C81799F190E078
:101FF000109711F0DF3F19F401968770F6CF189F04
:102000009001199F300D1124F901EC5CFD4F4181C5
:102010004713F2CF40814613EFCF42814111ECCFFD
:10202000438154814A1B5B0B483C510528F7809142
:1020300069028F70806180936902F901E75CFD4F4E
:1020400080818F708061808384E692E00E942D0DF4
:102050000E94A90FDF91CF911F910895A1E1B0E0F7
:10206000E4E3F0E10C940E298C0185E0F801DE0137
:102070001D9601900D928A95E1F7F801E28084E6C1
:10208000C82E82E0D82E60916702709168026115B7
:10209000710509F44EC19091640220916502892F67
:1020A00082238F3F09F445C140815181A380B480D0
:1020B000F0906602F501E61BF70BFF2009F4EAC079
:1020C00080916902382F307FE83CF10508F0A3C009
:1020D00031116DC0FE2C251316C0941314C0E110ED
:1020E00012C08F708061809369020E94CA0FC6017E
:1020F0000E942D0D80916902F80185838F2D6196D4
:10210000EAE00C942A29A114B10429F0842F852334
:102110008F3F09F027C180E0F82FF170DF2E80FF9C
:102120003CC0809132022091330236E0821315C008
:102130004D875E878D859E850E947B0F292F229576
:102140002F702230F0F0243018F59F70F1F0F80174
:102150009581907FD1F4D12C1EC090E0389FF00182
:10216000399FF00D1124EC5CFD4F6181651306C0B1
:102170006081641303C06281E6120FC0019687700C
:10218000D5CF9F7011F0882331F3805E883018F32B
:10219000C8010E942D0DFD2CB1CFEE2009F4AECF69
:1021A00080916902816080936902F12CA7CF251389
:1021B00006C0941304C0F801EE2009F487C0C801DA
:1021C0000E948D0D882319F1EE2009F1809169029A
:1021D000803270F0209164023091650238872F833D
:1021E0001986BB86AA868C87CE0107960E942D0D84
:1021F00086E0F801A4E6B2E001900D928A95E1F73D
:102200000E94D90F0E94CA0FFF24F39477CFC80110
:102210000E942D0DF9CF311113C07A2DB98AA88AE9
:102220006E2D89890E94950D84E692E00E942D0D05
:1022300086E0F60111928A95E9F70E94CA0FB5CFA0
:1022400025130FC094130DC0E1100BC0F801858356
:10225000C8010E942D0D86E0F60111928A95E9F7DA
:102260004DCFC8010E948D0D882389F2EE2079F2AE
:1022700080916902803208F4BBCF209164023091D2
:1022800065023A8329831B82BD82AC828E83CE0194
:102290000196ACCFE83CF10508F03EC0FE2CEE20E4
:1022A00009F4B5CF25132AC0941328C08091690280
:1022B00080FD1BC0982F907FC1F0F8018583903F6F
:1022C00031F0982F907F905F8F70892B8583C801A4
:1022D0000E942D0D86E0F801A4E6B2E001900D9277
:1022E0008A95E1F70E94CA0F09CF86E0F801A4E6BB
:1022F000B2E001900D928A95E1F700CFC8010E94EB
:102300008D0D811175CF8091690281608093690282
:10231000C8010E942D0DF2CE7A2DB98AA88A6E2DA1
:1023200089890E94950D86E0F60111928A95E9F758
:10233000D9CFEE2009F46BCFC8010E948D0DF82E85
:10234000882309F464CF86E0F801A4E6B2E00190A6
:102350000D928A95E1F784E692E00E944A0A0E9473
:10236000D90FC0CF81E08E25D7CEACE0B0E0EBEB4B
:10237000F1E10C9415294F83588769877A878B87F9
:102380009C87CE0107960E942E10882369F08A85CB
:102390009B85892B39F04F815885842F85238F3F6A
:1023A00009F06BC016E05FC086E0FE013796DE01E3
:1023B000119601900D928A95E1F78A859B85892B6C
:1023C00089F388859F8189238F3F61F320913302B0
:1023D00030E0C90101968770992740913202481771
:1023E000190671F40E946D0D1092330210923202A0
:1023F00086E0E4E6F2E0DF011D928A95E9F7D2CFAC
:1024000096E0929FD001939FB00D1124AC5CBD4F1C
:10241000FE01319601900D929A95E1F78093330277
:102420000E94A90FBFCF819FC00111248C5C9D4FDA
:102430000E942E108823E9F0E09132021E9FF001E5
:102440001124EC5CFD4F4081518162817381848154
:1024500095810E949F0D8091320290E001968770D5
:10246000992780933202809132029091330289132E
:10247000DACF2C96E3E00C94312969857A858B8537
:102480009C850E949F0D8ECF682F809100019091B6
:1024900001010E9415200895682F809100019091FC
:1024A00001010E941820089580910001909101017E
:1024B0000E941B20089580917202859585958595CF
:1024C00008958091720287700895909172029770BA
:1024D00081E009F480E0089580917D020895909153
:1024E0007D02892B80937D020895809590917D02D5
:1024F000982390937D02089510927D020895909103
:102500007C02892B80937C020895809590917C02B7
:10251000982390937C02089510927C0208958091F4
:102520007302089508950E94921208959091BF0237
:1025300092FF08C090917302981721F08093730264
:102540000E949312089580917302882329F01092BB
:10255000730280E00E9493120895CF93DF93E0917D
:102560000001F091010180917D028083E0910001E2
:10257000F0910101808190917C02892B8083909160
:102580007302992381F0E0910001F09101018081B3
:10259000892B808380910001909101010E94CD1FC1
:1025A00081110E94A312C0910001D091010148E065
:1025B00050E06AE672E0CE010E945129892B59F061
:1025C00088E0FE01AAE6B2E001900D928A95E1F75B
:1025D000CE010E944F1FDF91CF91089508950E9470
:1025E000EE1208959091BF0292FF11C098E0899F6A
:1025F00090011124622B609372020E94260E80913A
:1026000072028595859585950E94EF1208950E9426
:10261000260E08951092720280E00E94EF12089533
:10262000909172028095892380937202282F2770DF
:1026300091F4282F082E000C330B9217130659F033
:102640009091BF0292FF07C08595859585950E9460
:10265000480E0E940A130895CF93C82F8091BF029D
:1026600082FB992790F99C17E9F0C0FB82F98093CF
:10267000BF028091BE029091BF020E94901382E03F
:102680000E94101380918E0280FF0CC01F92CF9386
:102690008CEF94E09F938F930E9499070F900F9077
:1026A0000F900F90CF9108958091BF0282FB8827F1
:1026B00080F991E089270E942C13089581E00E94FF
:1026C0002C13089580E00E942C1308956FEF7FEF84
:1026D00090E080E00E948A29089590E080E00E94C6
:1026E000662921E0883E9E4F09F020E0822F089560
:1026F00082E090E00E945E29089583E090E00E94CD
:102700005E290895CF9384E090E00E945E29C82F4F
:1027100082E290E00E945E29982F8C2FCF9108953D
:10272000CF93C92F682F84E090E00E946C296C2F12
:1027300082E290E00E946C29CF910895AB01BC0128
:102740008FE090E00E947E290895AB01BC0183E1F7
:1027500090E00E947E29089560E070E0CB010E9425
:10276000A513089560E070E0CB010E949E130E94C3
:10277000AC13089568EE7EEF90E080E00E948A2915
:1027800060E082E090E00E946C2960E083E090E0ED
:102790000E946C2910922E0210922F021092300289
:1027A0001092310260E084E090E00E946C2964E0C5
:1027B00082E290E00E946C2960E085E090E00E9457
:1027C0006C2960E086E090E00E946C296FEF87E062
:1027D00090E00E946C2940E050E0BA0188E090E06F
:1027E0000E947E2960E08DE090E00E946C2940E02C
:1027F00050E0BA0188E190E00E947E2960E087E124
:1028000090E00E946C2940E050E0BA018CE190E039
:102810000E947E2970E060E080E290E00E948A29B8
:1028200040E050E0BA0188E190E00E947E290E94D9
:10283000B21308950E94BA130895682F8EE090E0B5
:102840000E946C2908950E94DB2060938A02709395
:102850008B0280938C0290938D026093860270931A
:1028600087028093880290938902089508950895BD
:102870000E943714089508950E943B1408958DE333
:1028800093E20E94381F0E9436140E943814089563
:1028900081E008950E9448140895089508950E94C3
:1028A0004D140E944E1408950E94DE160E94D10914
:1028B00008950E94C6200E94A2070E9454140E94FC
:1028C0003C140895AAE0B0E0E8E6F4E10C940C2989
:1028D0000E94DF07982E81110E9423148EE7A82EF4
:1028E00082E0B82E10E000E0802E802F0E94970832
:1028F000E82EF501C1905F01C816B1F180918E02FA
:1029000081FD0E94A108D12CFF24F394CE248C2DAC
:102910008F2129F10E944A14882399F0DE828F8248
:10292000EF2081E009F480E088870E94CF20816059
:10293000782F9A8789874E815F8168858A850E9472
:10294000150AF801E258FD4F8081F826F08281E0F7
:10295000911001C080E02A96ECE00C942829D394D1
:10296000FF0CF8E0DF12D3CF0F5F1F4F08301105C7
:1029700009F0BACF8FEF89838A831B820E94CF2010
:102980008160782F9D838C8349815A816B818D81F1
:102990000E94150ADCCF0E9462140E9406190E9450
:1029A000E4090895CF93DF930E94EA15EC018115A5
:1029B00021E5920708F042C0811530E5930708F041
:1029C0009DC0883E910530F5803E910508F092C08B
:1029D000883A910588F4853A910508F084C08130E1
:1029E000910509F487C0009709F484C0049708F0A2
:1029F00081C0D0E0C0E07EC08F3B9105D0F7C85ABF
:102A0000D0E0CC0FDD1FC85BDE4F0990D881C02D10
:102A1000D46470C08115904250F4C11581E0D8078C
:102A200008F068C0CD3ED10520F3D06563C0C11564
:102A300090E4D907F0F2DF70D06A5CC0811525E51B
:102A4000920700F5811534E5930708F08BC08115D6
:102A500043E5940708F073C0C11582E5D80708F470
:102A600069C0CE018370992721E030E002C0220FB7
:102A7000331F8A95E2F7C695C69580E2C89FE001AC
:102A8000112454C0C11599E5D907A8F4C11528E54A
:102A9000D20708F06CC0C11536E5D30708F0A9CFFE
:102AA0008C2F0E948116C82FD0E0DC2FCC27CC279A
:102AB000DF71D0621FC0C1154AE5D40708F45CC0BD
:102AC000CE0190568115904208F093CF8D2F8F71D3
:102AD0000E94811690E0982F882788279F719C017B
:102AE0002C2BE901E6CFC55AD0E0CA58DE4FC88189
:102AF000D0E0D064CE01DF91CF910895E4E09695C7
:102B00008795EA95E1F783702C2F269526952370FB
:102B100040E2249F90011124382B8C2F8370C1E058
:102B2000D0E002C0CC0FDD1F8A95E2F7C22BD32B79
:102B3000DC68E0CFDC2FCC27C16FD06ADBCF83709D
:102B4000992721E030E002C0220F331F8A95E2F777
:102B5000C695C69590E2C99FE0011124C22BD32BE4
:102B6000DA68C8CFD82FCC27C46FD06AC3CFDC2F88
:102B7000CC27C06FD06ABECF8C2F8F700E94811679
:102B800034E0D695C7953A95E1F7CF709C2FEC01CC
:102B9000D069B0CF7830B0F46830A0F498E0899F65
:102BA000F0011124E70FF11D83E0EE0FFF1F8A955E
:102BB000E1F7E60FF11DEE0FFF1FE953FF4F85917F
:102BC0009491089580E090E008950E94CA150E94B3
:102BD000D214089582389105B1F1B0F48133910592
:102BE00009F475C048F48932910509F469C08A3244
:102BF000910509F473C008958533910509F459C00E
:102C00008933910501F10895833E9105A9F138F4C6
:102C1000803E9105F9F0823E910549F10895863E86
:102C20009105A9F1873E9105C9F1843E910519F5F9
:102C30002091BF0221FF1FC08091BE0284FD14C0FD
:102C400087EE90E008952091BE022370A1F080EEFF
:102C500090E008952091BE0220FD47C03091BF0250
:102C600030FF09C024FF44C090E080E004C0209100
:102C7000BE0222FDF7CF08952091BE0222FD3BC087
:102C80003091BF0230FDE3CF24FFF5CFEDCF20918F
:102C9000BE0223FFF0CF24FDE7CFD2CF2091BE02AA
:102CA00023FD2CC03091BF0231FFEECF84EE90E0C7
:102CB00008952091BE0225FFDECF89E290E00895BD
:102CC0002091BE0225FFD7CF85E390E008952091A3
:102CD000BE0226FFD0CF8AE290E008952091BE0286
:102CE00026FFC9CF81E390E0089589E390E008953D
:102CF00083EE90E0089582EE90E0089586EE90E0F5
:102D000008959091BE0292FF06C0282F28712830A6
:102D1000F9F4877F846093FF06C0282F287128313B
:102D2000F1F4877E84612091BF0220FF06C0382F16
:102D300038713830D9F4877F816021FF06C0282F91
:102D400028712831D1F4877E816194FD877E0895B2
:102D5000282F24712430F9F68B7F8860DCCF282F50
:102D60002471243101F78B7E8861DDCF382F3171DA
:102D7000313019F78E7F8860E0CF282F2171213103
:102D800021F78E7E8861E1CF0E94661308950E942C
:102D9000DF078FE39CE90197F1F700C000000E9474
:102DA000DF0780E00E94970880FF04C00E94C416DD
:102DB0000E94362108950E94C71608950E946D133F
:102DC000811102C00E941A140E94781380938E020F
:102DD0000E9482139093BF028093BE020E94DB1672
:102DE0000E947D13682F70E090E080E00E94BB0D90
:102DF00060912A0270912B0280912C0290912D02F9
:102E00000E94FA0D08950E94B9230E9459140E944D
:102E1000C62308950E94CB230E94CB140E94E9236D
:102E200008950E9468200E949F230E943F140E94E0
:102E300003170E940A170E944F14FBCF809195023E
:102E400080FF0DC06091070170E0660F771F60384A
:102E5000710570F56115710569F1862F089581FF7F
:102E600007C06091070184E0689FB0011124EFCF93
:102E70006091070182FD0AC0809194028823A9F025
:102E80002091060160910701821710F088E0ECCFD5
:102E9000869FC001112433E0880F991F3A95E1F70E
:102EA000622F70E00E94EC28D2CF68E070E0D5CFAE
:102EB0008FE7089581E008958091950280FF0CC00E
:102EC0006091030170E0759567957595679561153B
:102ED000710549F1862F089581FF06C060910301B5
:102EE00070E075956795F3CF6091030182FD0BC08B
:102EF000909193029923A1F06091020180910301C6
:102F0000961738F0682F70E06038710500F38FE78E
:102F10000895899FC001112470E00E94EC28F4CF2D
:102F200061E070E0D7CF81E008958D3E31F40E94DA
:102F30001E1781958093990208958E3E19F40E9480
:102F40001E17F8CF8F3E31F40E941E178195809393
:102F500098020895803F19F40E941E17F8CF893F08
:102F600029F40E945C1780939A0208958A3F21F405
:102F70000E945C178195F7CF8B3F31F40E945C175C
:102F8000819580939B0208958C3F19F40E945C17F1
:102F9000F8CF9FE0980F983070F4815F990B21E093
:102FA00030E001C0220F8A95EAF780919702822BC8
:102FB0008093970208958D3F31F48091950281604E
:102FC0008093950208958E3F21F48091950282604E
:102FD000F7CF8F3FB9F7809195028460F1CF409190
:102FE00098028D3E59F48091990287FF0DC010928E
:102FF000990241110BC01092940208C08E3E81F4D8
:103000008091990218169CF3442381F080919A02D2
:1030100090919B02892B09F05AC010929302089557
:103020008F3E49F447FFF0CF1092980280919902A9
:103030008111ECCFE0CF803F19F41416ACF3E4CF4C
:1030400090919A02893F29F41916F4F610929A0287
:10305000DBCF8A3F19F497FFD7CFF8CF90919B022F
:103060008B3F29F497FFD0CF10929B02CDCF8C3F9E
:1030700019F41916CCF3C8CF9FE0980F983090F44C
:10308000815F990B21E030E0B90102C0660F771F24
:103090008A95E2F7CB0180959091970289238093DE
:1030A0009702B2CF8D3F31F4809195028E7F80934D
:1030B0009502AACF8E3F21F4809195028D7FF7CFA4
:1030C0008F3F09F0A1CF809195028B7FF0CF0895BB
:1030D00080918E0283FF7EC088E395E00E94000706
:1030E000809197021F928F9383E395E09F938F9334
:1030F0000E94990781E395E00E9400078091980261
:10310000282F082E000C330B3F938F938EE295E00F
:103110009F938F930E9499078CE295E00E9400078D
:1031200080919902282F082E000C330B3F938F9328
:1031300089E295E09F938F930E94990787E295E03B
:103140000E94000780919A02282F082E000C330B52
:103150003F938F9384E295E09F938F930E9499070A
:1031600082E295E00E94000780919B02282F082EA2
:10317000000C330B3F938F938FE195E09F938F93D8
:103180000E9499078CE195E00E94000780919402CB
:103190001F928F9389E195E09F938F930E949907E7
:1031A00087E195E00E940007809195021F928F931E
:1031B00084E195E09F938F930E94990781E195E0C8
:1031C0000E9400078DB79EB74C960FB6F8949EBF2D
:1031D0000FBE8DBF0E94CF209C01909198028091DC
:1031E0009902982B21F030939202209391029091B2
:1031F0009A0280919B02982B21F0309390022093A9
:103200008F0286E992E00E94931F0895A6E0B0E045
:10321000ECE0F9E10C94152986E0E6E9F2E0DE0144
:10322000119601900D928A95E1F7109298021092F2
:10323000990210929A0210929B028B819C81892B99
:1032400081F080919102909192020E94E720AC015E
:1032500090919402992391F18091080184171506A9
:10326000D0F18D819E81892B91F080918F02909178
:1032700090020E94E720AC0190919302992309F4F7
:103280006BC0809104018417150608F473C0BE0159
:103290006F5F7F4F86E992E00E94222081110E9499
:1032A000681886E0FE013196A6E9B2E001900D9221
:1032B0008A95E1F72696E3E00C94312920910901E3
:1032C0008AE0289F900111242417350750F69F5F4C
:1032D0009093940202C09F3FD1F71B81112359F0B4
:1032E0000E941E179FEF11160CF491E0899F802D0C
:1032F0001124809398021C81112359F00E941E17FB
:103300009FEF11160CF491E0899F802D112480937A
:10331000990230919802332309F4A3CF20919902A6
:10332000222309F49ECF45EB3403C00111249923D5
:1033300059F09093980245EB240390011124332314
:1033400039F0309399028DCF81E080939802F3CFCA
:1033500081E08093990285CF209105018AE0289F22
:10336000900111242417350708F091CF9F5F9093A7
:10337000930202C09F3FD1F71D81112359F00E9493
:103380005C179FEF11160CF491E0899F802D11249A
:1033900080939A021E81112359F00E945C179FEFBF
:1033A00011160CF491E0899F802D112480939B02CB
:1033B00030919A02332309F46ACF20919B02222391
:1033C00009F465CF45EB3403C0011124992359F06A
:1033D00090939A0245EB240390011124332339F092
:1033E00030939B0254CF81E080939A02F3CF81E027
:1033F00080939B024CCF86E0E6E9F2E0DF011D926C
:103400008A95E9F710929402109293021092950215
:103410000895CF93DF93EC01FB018281882309F4A7
:1034200033C1C430FDE5DF07C0F5CB3F9CE5D907CC
:1034300030F49E0122503C4524313105B0F50E9404
:1034400082139093BF028093BE02C1318CE5D807EE
:1034500009F4EEC008F069C0C930ECE5DE0709F4F4
:10346000D5C0C8F5C5308CE5D80709F4C7C000F54C
:10347000C330ECE5DE0709F4B9C008F0BBC0C230C8
:10348000DC4509F4ADC08091BE029091BF020E945C
:1034900090130E946D0D80E008C0C236EDE5DE0796
:1034A00071F2C63AFDE5DF0751F2DF91CF91089541
:1034B0008091BE028062C7309CE5D90709F493C0B1
:1034C0008091BE028061C830DC4508F48CC08091D8
:1034D000BE02806488C08091BE028B7FCD30FCE547
:1034E000DF0709F480C098F48091BE028E7FCB3054
:1034F0009CE5D90709F477C08091BE028C60CC307E
:10350000DC4508F470C08091BE028D7F6CC0809154
:10351000BE028F7ECF30FCE5DF0709F464C008F4FB
:103520007BC08091BE028F7D5EC0CE3F9CE5D907F7
:1035300009F47AC050F5C531FCE5DF0709F486C00F
:1035400098F48091BE02837FC3319CE5D90709F4CA
:103550004AC008F471C00E946D0D9091BE02892F7F
:1035600097FB87F980583FC0CC3FFCE5DF0709F4A3
:1035700049C008F055C08091BF028160CB3FDC4557
:1035800009F081CF8093BF027ECFC230EDE5DE0728
:1035900009F468C0A8F4C1158DE5D80709F452C034
:1035A0008091BF028360C130DD4560F38091BF022E
:1035B000982F909591708E7F892B90FB81F9E2CFA7
:1035C000C236EDE5DE0709F451C0C63AFDE5DF0776
:1035D00009F453C0C330DD4509F055CF80E043C046
:1035E0008091BE0281608093BE024DCF8091BE0269
:1035F0008260F9CF8091BE028460F5CF8091BE02D7
:103600008860F1CF8091BF028260BCCF0E946D0DB7
:103610008091BE028068E7CF8091BE02877FE3CFB2
:103620008091BF028E7FAECF8091BF028D7FAACFE7
:103630008091BE028F7BD7CF0E946D0D8091BE021C
:103640008F77D1CF8091BF028C7F9CCF8091BE02BB
:1036500082FB992790F921E0922790FB82F990FB59
:1036600083F9C1CF81E00E941D140DCF9091BE025D
:10367000892F8F7E94FF8061B6CF9091BE02892FF3
:103680008E7F90FF8160AFCF81E00FCF80910201EC
:103690001F928F93809103011F928F938091060157
:1036A0001F928F93809107011F928F938091080141
:1036B0001F928F93809109011F928F938BE595E064
:1036C0009F938F930E9499078DB79EB70E960FB662
:1036D000F8949EBF0FBE8DBF0895883228F58E31B5
:1036E00008F072C08B3041F130F4873009F4CFC05C
:1036F0008AEB96E0E0C0833109F45FC08431C1F702
:103700008CED96E00E9400078091A002882309F4C6
:10371000FEC01092A00210929F0210929E02109280
:103720009D0210929C0220C08F3409F4C7C0D8F5C6
:10373000893231F38833E1F68FED96E00E9400077D
:103740000E94461B1F9281E08F931F9288E08F9307
:1037500088ED95E09F938F930E9499070F900F90AB
:103760000F900F900F900F902091A002222309F448
:10377000C9C080919C0290919D02009711F489E745
:1037800091E09F938F931F922F9388EA96E09F93E7
:103790008F930E9499070F900F900F900F900F90AA
:1037A0000F9081E00895813509F49CC008F49CC015
:1037B000823509F09DCF81E082C08EEC96E00E94B8
:1037C00000070E94461BD0CF8D518093A00283300A
:1037D00009F442C058F48130C1F08230A1F1109256
:1037E000A0028BEC96E00E9400071BC0853009F414
:1037F00045C0D8F1863099F782E091E090939F021E
:1038000080939E0281EC91E008C089E091E0909362
:103810009F0280939E028DE791E090939D0280939A
:103820009C028091A002882309F49ECF1F928F935F
:1038300087EC96E09F938F930E9499070F900F90CB
:103840000F900F9091CF88E091E090939F0280932A
:103850009E0286E891E0E1CF87E091E090939F029D
:1038600080939E0282E991E0D8CF86E091E0909328
:103870009F0280939E028FE991E0CFCF83E091E099
:1038800090939F0280939E028EEA91E0C6CF81E0E2
:103890008093090184E1809308018AE08093070105
:1038A0008EE18093060188E08093030188E2809393
:1038B00002018DEB96E00E94000756CF8AE0E0916E
:1038C0009E02F0919F023097D1F02081082E000CCB
:1038D000990B820F911D8F3F910541F03CF08FEFC6
:1038E000808307C08FEFEBCF86EFE9CF97FFF8CF4C
:1038F000108280811F928F9384EB96E09BCF81EBA7
:1039000096E0D9CF84EA96E00E9400074ACF80E093
:103910000895CF93C82F1F928F9385EF96E09F93C2
:103920008F930E94990761E070E080E090E004C00E
:10393000660F771F881F991FCA95D2F70E94BB0D8B
:103940000E946D0D0F900F900F900F90CF910895E2
:10395000EF92FF920F931F93CF93DF938B3109F474
:10396000FFC008F09FC08B3009F4BBC008F07DC0D9
:10397000863009F4C9C048F4853009F4A1C083E356
:103980009BE00E94000780E0CFC0873009F4D1C0DF
:103990008830A9F70E947D131F928F9386E19BE0E8
:1039A0009F938F930E9499070E94781383FB992716
:1039B00090F91F929F9382FB992790F91F929F93F2
:1039C00081FB992790F91F929F93982F91701F92D6
:1039D0009F931F928F938DEC9AE09F938F930E94F9
:1039E00099070E94821387FB222720F91F922F93A9
:1039F00086FB222720F91F922F9385FB222720F98F
:103A00001F922F9384FB222720F91F922F9383FB71
:103A1000222720F91F922F9382FB222720F91F9241
:103A20002F9391FB222720F91F922F93292F21708A
:103A30001F922F9381FB222720F91F922F93282F6B
:103A400021701F922F939F938F9388EE99E09F93FD
:103A50008F930E9499078DB79EB788960FB6F894FA
:103A60009EBF0FBE8DBF81E05FC0803109F490C062
:103A700080F48E3009F083CF90918E02892F8B7F56
:103A800092FF846080938E0282FF7FC08EE59BE070
:103A900073C0863109F48CC0893109F070CF85E696
:103AA00097E021C08A3249F190F4873211F128F46D
:103AB0008E3108F464CF8D511DC0893209F05FCF7B
:103AC00081EA9BE00E9400070E943309CCCF833437
:103AD00068F48A3308F091C0853359F0883309F0CF
:103AE0004ECF85E498E00E940007BDCF833409F0F3
:103AF00046CF80E00E94891CB6CF81EC9BE00E94FB
:103B000000070E941A14AFCF80918E02807F8093AD
:103B10008E028EE198E00E9400078DEB9BE00E94F0
:103B2000000781E08093A102CDB7DEB7E6E00C94F8
:103B30002E2990918E02892F8E7F90FF8160809335
:103B40008E0280FF03C085E99BE0CDCF88E89BE033
:103B50000E94000780918E02817F80938E0283CF26
:103B600090918E02892F8D7F91FF826080938E02CB
:103B700081FF08C08BE79BE00E94000780918E02C6
:103B80008160EBCF8DE69BE0AECF8EE49BE0ABCFC8
:103B900090918E02892F877F93FF886080938E0299
:103BA00083FF03C082E49BE0E7CF85E39BE09BCFEC
:103BB0000E94DB20162F072FF82EE92ED091BD0290
:103BC000C09116010E94421FEF92FF920F931F9324
:103BD0001F92DF931F92CF931F928F938AEF96E0ED
:103BE0009F938F930E9499078DB79EB70C960FB63F
:103BF000F8949EBF0FBE8DBF36CF89537BCF80E038
:103C000008950E94FF1D0895CF93C82F8091A102AF
:103C10008130C1F0882339F0823009F444C0109219
:103C2000A10280E00DC00E946C128232D1F78C2F6D
:103C30000E94FF1D81111BC08C2F0E94A81C817047
:103C4000CF9108950E946C12823289F38C2F0E94CA
:103C5000011E81111BC0C431D9F060F4CB3071F06A
:103C6000C031D1F08FEE96E00E94000713C081E0D2
:103C700090E0E5CFC93261F0C833A1F78EE198E05A
:103C80000E94000781EF96E00E94000781E0D7CFF5
:103C90001092A10280E0D3CF82E08093A10288E35A
:103CA0000E946D1BF3CF8C2F0E946D1B81E0C8CF4B
:103CB000CF93DF93EB0186319C4511F50E946C1286
:103CC0009A81992399F08A7A91E009F490E090938F
:103CD000A202811109C089E20E9444120E94AD1221
:103CE00080E0DF91CF91089585E3F6CF8091A20225
:103CF000811104C089E20E944C12F0CF85E3FBCF12
:103D000081E0EFCF0F931F93CF93DF93C42FD22F78
:103D1000FC0182818823C9F04093A5020E94CF2034
:103D20009093A4028093A30280E28C0F883040F429
:103D3000C77081E001C0880FCA95EAF70E94F40AB3
:103D4000DF91CF911F910F9108951091A502141347
:103D500032C08091A3029091A4020E94E720883C87
:103D6000910548F5C0E2CD0F1D17B9F080E2810F33
:103D7000883040F4177081E001C0880F1A95EAF787
:103D80000E94FB0AC83048F481E09D2F977001C063
:103D9000880F9A95EAF70E94F40A802F0E94EB0A96
:103DA000C83070F6D77081E001C0880FDA95EAF765
:103DB0000E94FB0AC5CF80E28C0F883008F6C770DE
:103DC00081E001C0880FCA95EAF7F2CF0F939C01FA
:103DD000CB01243F4CE5340759F1A8F4293DFCE51B
:103DE0003F0701F12A3D4CE53407D1F1283D3C4520
:103DF00091F406E221EE41EE68ED7CE50E94821E20
:103E000080E00F910895263FFCE53F07E9F0B0F010
:103E1000273F3C45F9F0FC018281882339F110925B
:103E2000A502EFCF07E225EE45EE69ED7CE5E6CF92
:103E300006E221EE40EE64EF7CE5E0CF07E225EEFE
:103E400044EE65EF7CE5DACF06E221EE42EE66EF66
:103E50007CE5D4CF07E225EE46EE67EF7CE5CECFDA
:103E600008E221E045EE6AED7CE5C8CF81E0C9CFEC
:103E70009093E7018093E60108959093AB028093BD
:103E8000AA020895E091AA02F091AB02309729F0BE
:103E90000190F081E02D0995089580E00895EF925A
:103EA000FF920F931F93CF93DF938C01E091AA02AF
:103EB000F091AB02309791F10280F381E02D0995EA
:103EC00080918E0282FF2AC080FF04C08AED9BE0B1
:103ED0000E940007D0E0C0E084EDE82E8BE0F82ED1
:103EE00080918E0280FF0EC0F801EC0FFD1F8081D3
:103EF0001F928F93FF92EF920E9499070F900F905D
:103F00000F900F902196C830D10551F780918E0205
:103F100080FF04C082ED9BE00E940007CDB7DEB7B2
:103F2000E6E00C942E29E091AA02F091AB023097C2
:103F300039F022E0DC012C930480F581E02D099515
:103F400008952091A8023091A9022817390771F02D
:103F50009093A9028093A802E091AA02F091AB028B
:103F6000309721F00680F781E02D09950895209182
:103F7000A6023091A7022817390771F09093A70283
:103F80008093A602E091AA02F091AB02309721F053
:103F90000084F185E02D099508959C012E5F3F4F27
:103FA000AC01485F5F4F80E02417350709F408959E
:103FB000F90191919F019923B9F38F5FF5CF6623A2
:103FC00049F0FC01329608962191261729F0E8174E
:103FD000F907D1F780E0089581E008959C01FC0184
:103FE00032969FEF80E04191461751F09F3F19F4C0
:103FF000411101C0982F8F5F8630A9F79F3F09F4C8
:104000000895290F311D97FD3A95F90162830895AE
:10401000FC01329608962191261303C0DF01119707
:104020001C92E817F907B9F708950E94EE1F08954A
:104030000E9408200895029626E0FC0111922A951C
:10404000E9F7089546E050E00E94512921E0892BCC
:1040500009F420E0822F089508950E942C200895ED
:10406000811106C081E08093AC020E942D2008954A
:1040700082E0F9CF83E08093AC020E942D20089566
:104080000E943020089581E08093AC020E942D2090
:1040900008950E9443200895089508950E944D2098
:1040A00008950E944C200895CF930E94CD080E944D
:1040B000DF070E94CE08C0E08C2F0E949708811174
:1040C00005C0CF5FC830C1F7CF91089581E0FCCF24
:1040D00085B7806885BF85B7806885BF08951F92C2
:1040E0001FB61F9211248F939F93AF93BF9380911C
:1040F000AD02811113C08091C0029091C102A091C4
:10410000C202B091C3024196A11DB11D8093C002AD
:104110009093C102A093C202B093C302BF91AF912A
:104120009F918F911F901FBE1F9018958091C8027C
:10413000843031F10E94A6091092AD0288E190E02E
:1041400020E40FB6F894A895809360000FBE2093EA
:10415000600083B7817F846083BF83B7816083BF42
:104160007894889583B78E7F83BF0FB6F894A8950F
:1041700080916000886180936000109260000FBEA3
:1041800008950E946D0D0E94AB09089582E084BDE0
:1041900093E095BD9AEF97BD80936E0008952FB779
:1041A000F8948091C0029091C102A091C202B09196
:1041B000C3022FBF08952FB7F8946091C002709189
:1041C000C1028091C2029091C3022FBF08959C0149
:1041D0004FB7F8948091C0029091C102A091C202A1
:1041E000B091C3024FBF821B930B0895CF92DF9211
:1041F000EF92FF922FB7F894C090C002D090C10206
:10420000E090C202F090C3022FBFA7019601261BC7
:10421000370B480B590BCA01B901FF90EF90DF90A3
:10422000CF90089578941F921FB61F9211248F93F8
:104230009F93AF93BF938091C0029091C102A091D0
:10424000C202B091C3020196A11DB11D8093C002AC
:104250009093C102A093C202B093C302BF91AF91E9
:104260009F918F911F901FBE1F90189581E08093A2
:10427000E00080E28093D8001092C9008FE19EE4B4
:104280000197F1F700C0000087E090EBDC0180931C
:10429000D1029093D202A093D302B093D40288E1CA
:1042A0009CE00FB6F894A895809360000FBE9093A1
:1042B0006000FFCF88E19CE00FB6F894A89580934A
:1042C00060000FBE90936000FFCF8091BC02089504
:1042D00008959C0182E08093E9009FEF8091E800BF
:1042E000915085FD06C085ED8A95F1F7000091118A
:1042F000F5CF8091E80085FF0CC050E040E066E01B
:1043000070E0C9010E945A248091E8008E77809362
:10431000E8000895CF93DF93EC0181E08093E900FA
:104320008FEF9091E800815095FD06C095ED9A952C
:10433000F1F700008111F5CF8091E80085FF14C0EE
:1043400050E040E068E070E0CE010E945A24809185
:10435000E8008E778093E80088E0FE01A4EBB2E0ED
:1043600001900D928A95E1F7DF91CF9108958093A6
:10437000B0027093B2026093B1028091C80284309F
:1043800001F582E08093E9008FEF9091E800815081
:1043900095FD06C095ED9A95F1F700008111F5CFD6
:1043A0008091E80085FF0DC050E040E063E070E0E0
:1043B00080EB92E00E945A248091E8008E778093EF
:1043C000E8000895BC0184E00E94B7210895BC0173
:1043D00083E00E94B721089580E09CE00E940007DE
:1043E0008091C702811109C00E94EA250E944726D8
:1043F0008091E20084608093E20008958CEF9BE05E
:104400000E9400071092C702089588EF9BE00E9467
:1044100000070E944320089584EF9BE00E9400075C
:104420006091C40281E0611101C080E00E943A20E5
:10443000089580EF9BE00E9400079091C80281E000
:10444000943009F080E06091C4020E9440200895F9
:104450002091AF022F5F822F62E30E94E028992310
:1044600019F02093AF0208951092AF028091B30229
:104470008823F1F08091C8028430C1F49091E90062
:104480009F702091EC00822F817020FD80E8892BA5
:1044900093E09093E9009091EB0090FF04C090911D
:1044A000EE0097FD08C08F708093E9001092B30270
:1044B00008951092F1009091E80095FDFACF909147
:1044C000E80090FFF0CF9091E8009E779093E8008D
:1044D000EACF42E061EC81E00E94662542E261ECB5
:1044E00082E00E94662542E261EC83E00E9466253C
:1044F0009091C80281E0943009F080E06091C4029C
:104500000E94302008958091CA02833009F461C06E
:1045100030F48130D1F1823009F49EC008958A30A0
:1045200009F48AC08B3009F46FC0893009F050C09B
:104530008091C902813209F04BC08091CD029091E7
:10454000CE02029708F044C08091E800877F8093F4
:10455000E8008091E80082FF37C09091F3008091DD
:10456000F200029731F48091F100813011F0863031
:1045700021F48091F1008093BC028091E8008B7758
:104580008093E8000E949A2523C08091C902813A55
:10459000F9F48091E800877F8093E8008091CD0254
:1045A0009091CE02892B61F468E084EB92E070E098
:1045B0000E94A9248091E8008B778093E8000895F9
:1045C00060E090E080E0F3CF8091C8028111C1CF1C
:1045D00008958091C902813AD9F78091CD029091D6
:1045E000CE02892BA9F78091E800877F8093E800AD
:1045F0008091E80080FFFCCF809116018093F1004C
:104600008091E8008E77BCCF8091C902813201F79A
:104610008091CD029091CE02892BD1F68091E80055
:10462000877F8093E8000E949A258091CB02809337
:1046300016010E946D0D08958091C902813241F6E4
:104640008091E800877F8093E8000E949A258091FE
:10465000CC028093BD0208958091C902813A09F08D
:10466000B7CF8091E800877F8093E8008091E800D1
:1046700080FFFCCF8091BD02C1CF9FB7F89410920C
:10468000B3029FBF9091C802943009F048C02091B6
:10469000E9002F703091EC00932F917030FD90E87D
:1046A000922B23E02093E9002091EB0020FF34C0FF
:1046B0002091EE0027FF30C02091AE02222321F08E
:1046C0002091E80025FF28C01092AE0226E030912C
:1046D000E80035FF14C08093F1008091E80085FD6B
:1046E00027C08091E80080FFFCCF8091E8008E77A2
:1046F0008093E8009F709093E90080E008953091E6
:10470000C802343049F43091EB0035FD05C021502A
:1047100041F481E08093AE029F709093E9008FEFA7
:104720000895EFE9FFE03197F1F700C00000CFCF27
:104730008FB7F89421E02093B3028FBFDBCF84B70B
:10474000877F84BF0FB6F894A89580916000886138
:1047500080936000109260000FBE80E890E00FB67A
:10476000F89480936100909361000FBE0E944920ED
:1047700008950E94EA250E944726E2EEF0E080813B
:104780008460808378940E94C52808958AE091E02F
:104790000E943D1F08958091C802853051F48CEE2F
:1047A0009BE00E9400078091C802853019F00E94AA
:1047B000C12008950E9496208091C602882399F313
:1047C0000E945420882379F30E9444240E946D0D96
:1047D000EACF08950E94ED230895292F332723302F
:1047E000310521F168F42130310509F443C022304C
:1047F000310509F444C090E080E030E020E026C0BC
:104800002132310551F122323105A9F763307105AA
:1048100090F7FB01EE0FFF1FE752FE4F2081318121
:104820006A527E4FFB01808190E010C09927813051
:10483000910581F0009729F00297E9F6E4E0FCE0A9
:1048400002C0E6E2FCE0849190E09F01FA0131832E
:1048500020830895E8E1FCE0F6CF6330710558F657
:10486000660F771FFB01E152FE4F2081318189E005
:1048700090E0ECCF82E190E025E83CE0E7CF8BE5EB
:1048800090E02AE23CE0E2CF80E189BD82E189BD8F
:1048900009B400FEFDCF8091D8008F7D8093D800B1
:1048A0008091E00082608093E0008091E00081FDD3
:1048B000FCCF0895AF92BF92CF92DF92FF920F93F9
:1048C0001F93CF93DF936C01EB018A010E94B925FE
:1048D000F82E811123C00115110539F0F8018081EE
:1048E0009181C81BD90BC80ED91EB12CA12C2097C1
:1048F000A9F08091E80085FD22C08091E8008E77C4
:104900008093E80001151105A1F0F80180819181E3
:10491000A80EB91EB182A08285E0F82E8F2DDF91FE
:10492000CF911F910F91FF90DF90CF90BF90AF90EC
:1049300008950E94B9258823D1F2F82EEFCFF60111
:1049400081916F018093F1002197FFEFAF1ABF0AA9
:10495000CECFFC018091CF029091D00286179707AD
:10496000A0F06115710529F49091E8009E7790936D
:10497000E80090E06115710551F4911108C0809133
:10498000E80082FF34C080E00895BC01F2CF80913E
:10499000C8028823C1F18530C1F18091E80083FD10
:1049A00030C08091E80082FDEACF8091E80080FF6E
:1049B000E1CF8091F3002091F200382F611571054D
:1049C00019F02830310558F091E02830310509F010
:1049D00090E02091E8002E772093E800CBCF8191E2
:1049E0008093F100615071092F5F3F4FE7CF8091B5
:1049F000C802882341F0853041F08091E80083FFB0
:104A0000BECF81E0089582E0089583E00895FC011F
:104A10008091CF029091D00286179707A0F0611580
:104A2000710529F48091E8008E778093E80090E08A
:104A30006115710551F4911108C08091E80082FF61
:104A400035C080E00895BC01F2CF8091C802882370
:104A5000C9F18530C9F18091E80083FD31C08091B2
:104A6000E80082FDEACF8091E80080FFE1CF8091ED
:104A7000F3002091F200382F6115710519F02830EC
:104A8000310558F091E02830310509F090E080912F
:104A9000E8008E778093E800CBCF84918093F1007B
:104AA0003196615071092F5F3F4FE6CF8091C80268
:104AB000882341F0853041F08091E80083FFBDCF2D
:104AC00081E0089582E0089583E00895982F97305B
:104AD00028F08F708093E90081E008959093E900B9
:104AE000242F762F50E0981731F07091EC00209130
:104AF000ED005091F00021FD02C09F5FE8CF3091A2
:104B0000EB003E7F3093EB003091ED003D7F309322
:104B1000ED003091EB0031603093EB007093EC00CE
:104B20002093ED005093F0002091EE0027FDE5CF9B
:104B300080E008958091C90287FF13C08091E8004A
:104B400082FF06C08091E8008B778093E80004C064
:104B50008091C8028111F2CF08958091C802882304
:104B6000D9F38091E80080FFF8CF8091E8008E773C
:104B7000ECCF2091E4003091E50095E6A901209169
:104B8000EC00822F817020FF06C08091E80080FF3A
:104B900006C080E008952091E80022FD1AC08091AF
:104BA000C802882389F0853089F08091EB0085FD6B
:104BB0000FC02091E4003091E50042175307F9F24D
:104BC0009150E1F684E0089582E0089583E008952D
:104BD00081E008950E9459260E946126E0EEF0E0EF
:104BE000808181608083E8EDF0E080818F77808331
:104BF00019BCA7EDB0E08C918E7F8C9380818F7E65
:104C000080831092C70208950F931F93CF93DF9371
:104C10000E9459260E946126C8EDD0E088818F77D6
:104C2000888388818068888388818F7D888319BC88
:104C30001092C8021092C4021092C6021092C502CD
:104C400000EE10E0F80180818B7F80838881816095
:104C5000888342E060E080E00E946625E1EEF0E0BB
:104C600080818E7F8083E2EEF0E0808181608083AE
:104C7000808188608083F80180818E7F8083888135
:104C800080618883DF91CF911F910F910895E8EDA6
:104C9000F0E080818F7E8083E7EDF0E080818160AD
:104CA000808384E082BF81E08093C7020E94042653
:104CB0000895E8EDF0E080818E7F80831092E2001D
:104CC00008951092DA001092E10008951F920F9259
:104CD0000FB60F9211242F933F934F935F936F93CF
:104CE0007F938F939F93AF93BF93EF93FF938091A5
:104CF000E10082FF0BC08091E20082FF07C080913B
:104D0000E1008B7F8093E1000E9428228091DA00ED
:104D100080FF19C08091D80080FF15C08091DA0013
:104D20008E7F8093DA008091D90080FF96C080E169
:104D300089BD82E189BD09B400FEFDCF81E0809389
:104D4000C8020E94EC218091E10080FF19C080918F
:104D5000E20080FF15C08091E2008E7F8093E20028
:104D60008091E20080618093E2008091D8008062AF
:104D70008093D80019BC85E08093C8020E940C2261
:104D80008091E10084FF2BC08091E20084FF27C066
:104D900080E189BD82E189BD89B5982F917080FF3E
:104DA000FBCF8091D8008F7D8093D8008091E10067
:104DB0008F7E8093E1008091E2008F7E8093E200FD
:104DC0008091E20081608093E2008091C402882398
:104DD00009F449C084E08093C8020E94192280919E
:104DE000E10083FF29C08091E20083FF25C080910C
:104DF000E100877F8093E10082E08093C8021092F7
:104E0000C4028091E1008E7F8093E1008091E200F6
:104E10008E7F8093E2008091E20080618093E200C7
:104E200042E060E080E00E9466258091F0008860AA
:104E30008093F0000E940522FF91EF91BF91AF9106
:104E40009F918F917F916F915F914F913F912F91A2
:104E50000F900FBE0F901F90189519BC1092C802AA
:104E60000E94FE2170CF8091E30087FD93E0909334
:104E7000C802B3CF1F920F920FB60F9211242F9337
:104E80003F934F935F936F937F938F939F93AF93D2
:104E9000BF93CF93DF93EF93FF93D091E900DF703F
:104EA0008091EC00C82FC17080FDC0E81092E9002D
:104EB0008091F000877F8093F00078940E947E2795
:104EC0001092E9008091F00088608093F000CD2B73
:104ED000CF70C093E900FF91EF91DF91CF91BF9127
:104EE000AF919F918F917F916F915F914F913F9182
:104EF0002F910F900FBE0F901F901895AAE2B0E06F
:104F0000E4E8F7E20C94152989EC92E02091F10095
:104F1000FC012193CF01F2E0813D9F07B9F70E9488
:104F200083228091E80083FF1EC18091C902909185
:104F3000CA029A3008F017C1E92FF0E0E255F64DA9
:104F40000C940029803899F0823809F00CC18091C6
:104F5000CD028F70873008F006C18093E900809100
:104F6000EB0085FB882780F91092E90006C080914C
:104F7000C5029091C602911182609091E800977FDE
:104F80009093E8008093F1001092F1008091E80086
:104F90008E77E5C0882309F4D3C0823009F0E3C0DE
:104FA0008091CB028111D6C08091CD028F702FEFFE
:104FB000280F263008F0D7C08093E9002091EB003D
:104FC00020FFC8C0933031F48091EB008062809361
:104FD000EB00C0C09091EB0090619093EB0021E05A
:104FE00030E001C0220F8A95EAF72093EA00109280
:104FF000EA008091EB008860EACF8111B4C0109183
:10500000CB021F778091E3008078812B8093E300AF
:105010008091E800877F8093E8000E949A25809124
:10502000E80080FFFCCF8091E30080688093E3007C
:1050300082E0111183E08093C80295C080588230CD
:1050400008F091C08091CB029091CC028C3D23E07E
:105050009207A1F583E08A838AE289834FB7F894A7
:10506000DE01139620E03EE051E2E32FF0E05093A2
:105070005700E49120FF03C0E295EF703F5FEF70AF
:105080008E2F90E0EA30C0F0C7968D939D932F5FEE
:10509000243159F74FBF8091E800877F8093E80063
:1050A0006AE270E0CE0101960E94A9248091E80096
:1050B0008B778093E80057C0C096E7CF6091CD0210
:1050C0007091CE02AE014F5F5F4F0E94EA23BC0198
:1050D000892B09F448C09091E800977F9093E800ED
:1050E00089819A810E940725E1CF8038E1F580917E
:1050F000E800877F8093E8008091C4028093F100EC
:1051000045CF811130C09091CB02923060F58091F3
:10511000E800877F8093E8009093C4020E949A255C
:105120008091C402882311F084E005C08091E300DF
:1051300087FDFACF81E08093C8020E94692213C0E4
:105140008091CB02813079F481E0933009F080E0E6
:105150008093C6021092E9008091E800877F8093D7
:10516000E8000E949A258091E80083FF0AC08091A0
:10517000E800877F8093E8008091EB008062809355
:10518000EB00AA96E3E00C943129CF938091C802FA
:105190008823A1F0C091E900CF709091EC00892F95
:1051A000817090FD80E8C82B1092E9008091E800A2
:1051B00083FD0E947E27CF70C093E900CF910895B0
:1051C000991B79E004C0991F961708F0961B881F59
:1051D0007A95C9F78095089597FB072E16F40094E9
:1051E00007D077FD09D00E943D2907FC05D03EF489
:1051F000909581959F4F0895709561957F4F089583
:10520000EE0FFF1F0590F491E02D09942F923F922D
:105210004F925F926F927F928F929F92AF92BF92C6
:10522000CF92DF92EF92FF920F931F93CF93DF9372
:10523000CDB7DEB7CA1BDB0B0FB6F894DEBF0FBECF
:10524000CDBF09942A88398848885F846E847D841C
:105250008C849B84AA84B984C884DF80EE80FD801E
:105260000C811B81AA81B981CE0FD11D0FB6F89494
:10527000DEBF0FBECDBFED010895AA1BBB1B51E1E0
:1052800007C0AA1FBB1FA617B70710F0A61BB70BB6
:10529000881F991F5A95A9F780959095BC01CD015B
:1052A0000895FB01DC0104C08D910190801921F467
:1052B00041505040C8F7881B990B0895F999FECFCB
:1052C00092BD81BDF89A992780B50895A8E1B0E014
:1052D00042E050E00C949229262FF999FECF92BD1E
:1052E00081BDF89A019700B4021639F01FBA20BDAB
:1052F0000FB6F894FA9AF99A0FBE08950396272FDD
:105300000E946D290E946C29252F0E946D29242F4F
:105310000C946D290196272F0E946D290C946C29FD
:10532000DC01CB01FC01F999FECF06C0F2BDE1BD65
:10533000F89A319600B40D9241505040B8F7089554
:10534000F894FFCF3D0B3D0B6E0B6E0BFB0B170C58
:105350009D0B9D0B220CAE0CBD0CBD0CA227CA27C9
:10536000B328CA27B328FD271E28B328752881280B
:105370007402280850011E0A140165218A2169213E
:10538000E721E221682101E200E900EA00B500B668
:1053900000B700CD008301CC008A01920194012165
:1053A00002230224022502260227022A02B300B4A5
:1053B000006F007000818283E200E900EA00B5001E
:1053C000B600B700CD008301CC008A0192019401A0
:1053D0002102230224022502260227022A02B30008
:1053E000B4006F0070008182833F3F3F006D6B5FB0
:1053F00064656C6179006D6B5F696E74657276616E
:105400006C006D6B5F6D61785F7370656564006DD6
:105410006B5F74696D655F746F5F6D6178006D6B54
:105420005F776865656C5F6D61785F7370656564F3
:10543000006D6B5F776865656C5F74696D655F743F
:105440006F5F6D617800407B22340DB90C970C3C86
:065450000C550C6E0C006F
:00000001FF
